:20000000008020207DA5000061A5000061A5000000000000000000000000000000000000F2
:2000200000000000000000000000000061A50000000000000000000061A5000061A50000AE
:2000400061A500008D30000061A5000061A5000061A500001598000061A5000061A5000012
:200060000000000061A5000061A50000000000000000000061A5000061A50000399500009A
:2000800061A5000061A5000061A5000061A5000061A5000061A5000000000000000000003C
:2000A00061A5000061A50000000000000000000061A500000000000061A5000061A5000022
:2000C000F0B593B01F461291984E119337403B46134397490024002B0AD0964B5D1C0146AE
:2000E000002807D11298A84204D12546904E29E0254626E00F951092129C34408E4EB4429A
:200100000D460AD8002D01D0B44206D0B74204D8109A002A1AD0B74218D10024284612992E
:2001200022460AF025FA05460E461098119922460AF01EFA02460B462846314603F0FFFF64
:2001400005460E462846314613B0F0BD0021129800281AD5794A974201D9022115E09F425A
:2001600013D93A0D764B9F4200D2C0E0754B9B1A20331098D84002469A40109B93426D4B56
:2001800003D1012210400222111A109A002A15D00E910123D907129888430D90002D23D03B
:2001A0001298C10F491E0E9802460A4338D00C930023421E0A433AD05D4A39E0B74201D018
:2001C00000F029FC60482018284300D184E09C4200D883E00020119900290E46109D00DAA3
:2001E00006460029AEDA19E0B44204D050498C4201D0002CD4D100204D4910902A460D9FC4
:200200003B4605F04BFB0E461199002900D43E46002900D42846129900292ED4054691E79F
:200220000AF078F921210160484E00258AE7484AD84348498F420E900ED347498F4228D39A
:200240000AF068F9222101600F98844256D21198C017394E0640E8E70992404F404E701CAA
:20026000844224D200221C463E4B28460D9905F0F9FE234605460C461AE0334961180E9A18
:20028000114300D157E3012AC8D10121C9074E40C4E72848844238D214460AF03BF9222105
:2002A0000160119800283CD40020214640E335372015391826401F488019421C2A48864262
:2002C000129302D21646089156E0284886424FD2164608910C9850E0002507E70120C60757
:2002E00011984640C0170640109D05402AE71099002900D127E300200E904AE70025119845
:20030000002800DD1EE72E461CE70F98844200D826E314460AF0FEF822210160119801284E
:20032000C2DB0020044B2146D2E1C046FFFFFF7F0000F03FFFFFEF3F0000F07FFFFF3F43CB
:200340000000404113040000000010C00000F87F0000F0BF0100E0410100F043CCFBFFFFF4
:20036000FFFF0F00000040438F9803007AB60B00491C0891D748361818460490C2000792D0
:20038000D548811884584B68284631460096224602941E46019303F0CDFE074603900D916B
:2003A000204631462A46009E0AF0E6F802460B46CA49129805F072FA024606900B460591FE
:2003C00038460D9905F04EFE0B900A910E9801400F9170080C9A5107014304988004081801
:2003E000D1044718129C20463946029A019B03F0A1FE02460B462846314603F09BFE0C90C6
:20040000049120460F9E3146224625463B4605F029FE02460B4603980D9903F08BFE0446AD
:200420000F46284631460C9A049B05F01BFE02460B462046394603F07DFE0AF04DF80C9068
:200440000D910B9E30460A9F39460AF080F805460C4602460B4605F005FE06900591A04A01
:20046000A04B2846214605F0FDFD9F4A9F4B03F066FE0AF00BF89E4A9E4B03F060FE0AF08A
:2004800005F89D4A9D4B03F05AFE09F0FFFF9C4A9C4B03F054FE09F0F9FF9B4A9B4B03F08D
:2004A0004EFE0AF019F804460D4630463946129F3A460F9E0AF060F802460B460C980D9940
:2004C00005F0D0FD0AF040F80446059004913D46384631463A46334605F0C4FD07460691A9
:2004E0008B4B2A4603F02BFE2246049E0AF044F80C460E980440874B284621462A4603F014
:200500001EFE3A46069B03F015FE02460B460598314603F00FFE06460F4628460F992A46C4
:200520000AF028F80F9006910B980A990AF00FF806460F460C980D992A460AF01BF8324644
:200540000AF012F802460D900B460C910F9D2846069F394603F0F3FD0C460E980440129EB7
:20056000304621462A463B4603F0E4FD02460B460D980C9903F0DEFD05460F460720420718
:20058000654B3046214605F06DFD0D900C91634A28463946604B05F065FD05460F46604A4F
:2005A000604B3046214605F05DFD2A4609F0DCFF02460B465C48079D41194059496803F0A8
:2005C000BEFD07460B900C460A91089808F0E0FF064608910D980C993A4609F0C9FF02465C
:2005E0000B465248411947594C683846214603F0A6FD3246089D2B4603F0A1FD0E9B1940C6
:2006000012980F9132461E462B4603F093FD3A46234603F08FFD0D9A0C9B03F08BFD024647
:200620000B460B980A9903F085FD0C900B91119D2C46344000220D92109F3846294623461C
:2006400003F078FD0A9008910C980B993A462B4605F008FD07460E460A980899129D2A46C9
:200660000F9B05F0FFFC3A4609F086FF07460E4628460F990D9A09F07DFF04460D461197CA
:2006800038461296314609F05FFF07460E462848814255DB27483018384312D1274A264B6B
:2006A0001198129903F04BFD10900F91384609F029FF02460B4610980F9907F09BFD00282C
:2006C00054D009F027FF222101600020EC4B09990246B3E10000E03FC8BD00000000F03F8B
:2006E000EF4E454A287ECA3F65DBC9934A86CD3F01411DA96074D13F4D268F515555D53F0A
:20070000FFAB6FDBB66DDB3F033333333333E33F00000840000008C009C7EE3FFD033ADC61
:20072000F5015B14E02F3EBED8BD0000E8BD000000009040000070BF4715973CFE822B65D1
:20074000DD483040DD49884210D3DD483018384300D0E7E0384609F0D5FE02460B46119826
:20076000129907F033FD002800D0DBE0C94BC2493140C548814225D9080DC54942183632B1
:20078000581C0346D3409F197A00520D51183531CC4B0B413B40BF490F400743B948801A0F
:2007A000C740002E00D57F420D97119E00222046294603F0BFFC04460D463046129909F0BF
:2007C000C3FE0E460E9806400027BF4B384631463A4605F047FC0F900E913846109709F0DE
:2007E00091FE02460B461198129903F0A3FC04460D46B64AB64B3846314605F033FC0646E8
:200800000F46B44AB44B2046294605F02BFC324609F0AAFE024612900B4611910F9E30467C
:200820000E9F394603F08BFC04460D4632463B4603F080FC02460B461298119903F07AFCB7
:20084000129011912046294622462B4605F00AFC06460F46A14AA24B05F004FCA14AA24B65
:2008600003F06DFC09F026FEA04AA14B03F067FC09F020FE9F4AA04B03F061FC09F01AFE87
:200880009E4A9F4B03F05BFC09F014FE02460B460B9420460C95294603F04CFC06460F46A7
:2008A0002046294609F053FE04460D460320830730463946109A03F042FC02460B46204600
:2008C000294604F0EBFF0F900E910B9F38460C9E3146129D2A46119C09F04CFE2A4609F0CC
:2008E00047FE02460B460F980E9903F023FC02460B463846314603F01DFC604B109A03F0D8
:200900001EFC04460D9A100543186248401C834204DA204605F0D4FD04460B46099900202A
:2009200022468BE009F0F6FD22210160002009990246034682E009F0EDFD21210160714E5A
:20094000109DFFF7FFFB4F498A1A3946D1400B4693409F425ED1012211400222511A5AE0BD
:2009600009920024494B28460D99224603F0E7FB06460D4602460B4605F074FB0F900F4643
:20098000464B304629462246129405F06BFB444A414B03F0D4FB02460B4609F0DBFD0246EA
:2009A0000B463949204603F0C5FB02460B460F98394605F057FB04460F4603204207394BB6
:2009C00009F0C8FD0D900C91374A384B2046394605F048FB04460F46354A364B09F0BAFDAF
:2009E00022460E9E09F0C0FD02460B900D460D9F38460C9C21462B4603F0A1FB31401298A3
:200A00000F913A46234603F095FB02460B460B98294608E600210E910F998F4205D1119879
:200A2000002820D4129EFFF78DFB01218907119A8A4207D1284612992A460B4605F012FB8F
:200A4000FFF77EFB1298002801D5FFF7A2FB11460D498A4201D0FFF79CFB2846129903F009
:200A6000E7FFFFF76DFB002004492A46129B04F015FFFFF765FBC046FFFFFF7F0000F03F99
:200A80000000F07F130400000000E03F0000F0BFCCFBFFFFFFFF0F005555D53F0000D0BFE3
:200AA000555555554715F73FFE822B654715F7BF44DF5DF80BAE543E00FCFF7F00CC904055
:200AC00000346F3F0000F0FF432EE63F396CA80C615C20BEEF39FAFE422EE63FD0A4BE7262
:200AE0006937663EF16BD2C541BDBBBE2CDE25AF6A56113F93BDBE166CC166BF3E555555A7
:200B00005555C53F0000F87FF0B5FFB08EB0049306920646929802900025E84305908C91E5
:200B20003468204609F070FC21188B9503918C4200D3BBE00020879087A90873889005988E
:200B400089902F46049D2078002800D1AFE0252805D0641C34600699A8477F1CF3E78B97EB
:200B6000601C306087AC2046314600F0A7F88CAA2046314600F0BFF8306801787A2925D067
:200B8000682919D06A2908D06C290ED0742908D04C2922D1879980221BE087990122D2024C
:200BA00017E087990122520313E0427887996C2A64D10122120205E042788799682A60D155
:200BC0000122520211438791801C05E08799012212030A438792401C0178441C346087A8FB
:200BE000017373291FD06E2929D1879832490840202850D040283CD001214A03904238D05E
:200C00004A02904242D0CA02904205D00A0390422FD0090288422CD1F8178C9904C98C9163
:200C2000176050603BE087A80078400619D4009587A88CAA8BAB069900F01DF92FE007AD00
:200C400087A98CAA284600F06DF9024628460699029B9847411C059D00D0C5198B95039930
:200C60001FE0009587A88CAA8BAB069900F09FF815E08C9802C88C900F6010E0401C402203
:200C800001E0401C202211438791A5E78C9802C88C900F7003E08C9802C88C900F8003993C
:200CA0008B9D681C00D042E7059F00E02F4638467FB00EB0F0BDC046603F000010B50A68A2
:200CC0001378302B0FD0232B07D02B2B09D02D2B05D0202B0ED1042306E0082304E0012364
:200CE00002E0022300E0102304681C430460521C0A60E5E710BDFEB516460D46044608681E
:200D000002782A2A10D13068011D316000686060002805D540426060206801210143216002
:200D20002868471C2F6017E00021303A092A08D84218531C2B60435C6F467B545278491CF6
:200D4000F3E76A460023535412784718002A03D0684608F0B5F8606038782E2826D1781CB5
:200D6000286079782A2908D13068011D31600068A0602868401C2860FEBD00203039092935
:200D800008D839188A1C2A604A786B461A548978401CF3E76A46002111541078002804D020
:200DA000684608F08DF8A060FEBDA160FEBDF0B587B01E460C9F13681C1D14601D68002DCC
:200DC0003BD0049106908468002C04D4284609F0FDFA844203D3284609F0F8FA04460698B2
:200DE0004068A042039000DC204601463068019140180296306005940398A0420EDD069804
:200E00000078C0070AD1059801990E1A0024B44204DA20200499B847641CF8E70026049C60
:200E2000069805998E420BDA2868010A19D12D1DC0B22146B847761CF2E70020B84718E098
:200E40000599039A8A4214DD0078C00711D00198451A0024AC420CDA20200499B847641C2E
:200E6000F8E70020C0430299086009F053FB5821016007B0F0BDF0B585B00C4606460A9DC9
:200E80001068011D116000680490002844D00393B768002F04D4049809F0B6FA874203D373
:200EA000049809F0B1FA074602967268BA42114600DC3946039B1868009140181860019273
:200EC000BA420FDD02980078C0070BD10098C01B039000260398864204DA20202146A84772
:200EE000761CF7E70026BE4205DA0498805D2146A847761CF7E70198B84210DD02980078AC
:200F0000C0070CD00098C61B0027B74207DA20202146A8477F1CF8E700202146A84705B079
:200F2000F0BDC046F0B589B001920F460446FF210846FA3025187868029000260796039150
:200F4000FE3120222046009209F050FA7F20800006942118089104952E713D46387B0246A4
:200F6000613A172A2AD8012393402C46B44D2B42254608D007A908AA2846019B00F066F9BE
:200F800000260596B3E071252B42254622D1022A14D1019B1868021D1A600068C2B2534265
:200FA00053410593039AFC32069B9A18089208702868022188432860002698E0014645396C
:200FC000032907D3252860D0412803D058280596D0D08DE0019A1068C11D07208143084600
:200FE0000830106005C9D1432F7B4900490D0BD17B3F944911400143049C2CD01920C1433D
:201000008F4234D36E2033E0002A01D4114602E00121C9075140D60F002205923A46413A03
:20102000062A0BD9613F062F61D8C0467F443F797F00BF440B5C5C5C3B3631007A44127981
:201040005200974403545454332E290008AB2A4601F0FCFD4BE0002311461A46059307F039
:20106000ABF81921C9438F4225D3662224E04E20E0708F4201D3612100E04121A17008945E
:20108000607000200590022631E0002006994870252008700120A1E008AB2A4602F00CFC9F
:2010A00025E008AB2A4607F041FB20E008AB2A4604F0C6F91BE04622E2708F4201D36E2215
:2010C00000E04E22A2708F4201D3692100E0492161703F21C900069A51180891002803D09E
:2010E0002D202070042602E02B2020700326287B012701466F39092904D801228A405249B3
:201100000A4201D158286BD1049B029C04972946069F3D1908980C460978C90707D1191D62
:20112000091A62689142069F01DC691A4F1C411C0398430000263846324608F0C5FB0890D8
:201140000599002903D0411C0891067000E00146A94206D8481E691A491C202209F046F9D1
:201160002E702078C00605D40698391A202209F03DF92EE0069887422BD00698391A302681
:20118000324609F033F907984142414104980140012905D12078400702D43846069905E07A
:2011A0003878069A511C1070781C3E70227B412A0CD0582A05D0612A08D0782A01D0702A05
:2011C00007D123781B0701D4612A02D142784A704670069809F018F90599401809B0F0BD19
:2011E000002E09D0012E049B029C8FD10120079029680220084007E0079A296802200840E6
:20120000002A09D0049B029C08994A1E08922D220A704742474179E70028049B029C08D173
:20122000480700D472E70898411E0891009901706CE70898411E08912B210170002765E775
:2012400008C19000FFFF0F0043020000F8B514460F4605468068002804D4286810218843C8
:20126000286001E00120A860287B1026582808D0782806D0702804D06F2801D1082600E052
:201280000A262846194600F055F8AA68002A09D102460A4306D12878000749D52B7B002007
:2012A000024612E02B7B642B03D1642300290BD504E0692B08D1002906D5692301223A60BD
:2012C000002240428A4100E00A4600941146324600F0B0F8A968884206DA401C21684A1E6C
:2012E000226030220A70F5E7287B582803D0782801D070280FD1297809070CD5702800D1EA
:20130000782021684A1E226008702068411E216030210170287B6F280AD12878000707D588
:2013200020684178302903D0411E216030210170F8BDC04610B5037B702B05D10868021DA0
:201340000A60006800226FE00068384A024001204403A24222D0402A20D00402A24230D09C
:201360004402A24246D0C402A2422AD00403A24214D0202A12D100221C46643C142C06D84B
:20138000A0402B4C204204D1212420423ED1582B49D10868031D0B60008845E000221C4640
:2013A000643C142C06D8A040214C204204D1212420422BD1582B36D10868031D0B6000685B
:2013C00032E01A46643A142A06D89040184A104206D12122104203D10020582B024623D13E
:2013E0000868C21D072082431046083008601068526819E000221C46643C142C0CD8A04069
:201400000B4C20420AD12124204205D00868021D0A600068C21707E0582B04D10868031DB3
:201420000B60007800E01046114610BD603F000000081200FEB501920D460646582B01D07D
:20144000174800E015480090089802903046284305D1029A1068411E116030210170019C34
:201460003046284313D030462946224600F01AF807460D46224608F003FA301A0099085C15
:20148000029B19684A1E1A6008703E46E8E70298006808F0B9FF401EFEBDC04608C00000E8
:2014A00019C0000080B5102A06D0082A09D1C0084A078018C90880BD00090A07801809097F
:2014C00080BD002904D1114607F0BAFC002180BD002308F001FF80BD70B598B0169015915E
:2014E00014A8027011AB0120187000205870D949486800780968897C022207F02FFE002841
:2015000004D0FFE70020C04317902FE2C82008F0E1FB11AB00201870CE4948680078096866
:20152000C97B012207F01AFE002804D0FFE70020C04317901AE2C749486800780968497922
:20154000012211AB07F00AFE002804D0FFE70020C04317900AE2BF49486800780968897C6F
:20156000012211AB07F0FAFD002804D0FFE70020C0431790FAE1B749486800780968C97D38
:20158000012211AB07F0EAFD002804D0FFE70020C0431790EAE1F7494868007809680979BC
:2015A000012211AB07F0DAFD002804D0FFE70020C0431790DAE111AB0C201870ED494868C1
:2015C000007809680979012207F0C8FD002804D0FFE70020C0431790C8E10F2008F07AFBD0
:2015E000E449886A407A11AB18704868007809688978012207F0B2FD002804D0FFE7002069
:20160000C0431790B2E1DB49886A007A11AB18704868007809684978012207F09FFD002881
:2016200004D0FFE70020C04317909FE114A80078002808D0FFE7CF48806A807AE021084345
:2016400011A9087005E0CB48806A807A11A90870FFE7C8494868007809688979012211ABD9
:2016600007F07CFD002804D0FFE70020C04317907CE114A80078002808D0FFE7BD48806AE8
:20168000C07AE021084311A9087003E011A918200870FFE7B749486800780968C979012261
:2016A00011AB07F05BFD002804D0FFE70020C04317905BE114A80078002804D0FFE7C82039
:2016C00008F008FBFFE711AB40201870A9494868007809680979012207F040FD002804D025
:2016E000FFE70020C043179040E111AB78201870A0494868007809684979012207F02EFDB4
:20170000002804D0FFE70020C04317902EE1322008F0E0FA11AB002018709649486800787F
:2017200009684979012207F019FD002804D0FFE70020C043179019E18E4948680078096830
:20174000897A022211AB07F0EBFC002804D0FFE70020C043179009E11198000211A949780C
:2017600041180EA8018000880C2107F069FB10A90870169900208860169948601699086073
:201780001599886015994860159908600FA90870FFE70FA8007810A9097888425CDAFFE7E2
:2017A0007449486800780968C97A0C2211AB07F0B7FC002804D0FFE70020C0431790D5E09B
:2017C0001198000211AD0995697841180CA80180A9780902EA7889184180129909026A790A
:2017E000891881800023C45E159A1168091911600222865E159C6168891961600421465E99
:20180000159CA0688019A060A8790002EC7904190AA80480139C24026E7AA4194480AC7A37
:201820002402ED7A64198480C55E169C23685B192360845E169B5A6812195A60425E1699BA
:20184000886880188860FFE70F98401C0FA908709FE7C04694082020169800900068C11719
:20186000020C090489180004832202920023079308F028FD079B10AA0692127808F022FD00
:201880000099029A079B0860169801904068C117040C09040919000408F014FD069A079BBC
:2018A000127808F00FFD0199029A079B4860169803908068C117040C09040919000408F0DE
:2018C00001FD069A079B127808F0FCFC0399069A079B8860159804900068C117040C0904EA
:2018E000091900046405C00A0019C912127808F0E9FC0499069A079B086015980590406803
:20190000C117040C0904091900046405C00A0019C912127808F0D6FC0599069A079B4860A9
:20192000159808908068C117040C0904091900046405C00A0019C912127808F0C3FC089956
:20194000886015988068012806DBFFE715998868094A8018886006E01599886801221204EC
:2019600080188860FFE700201790FFE7179818B070BDC046940820200000FFFFF0B589B0F2
:201980000F4605460120C1073E468E43B14886420BD3D1483018284300D190E008F0BAFD0E
:2019A00021210160CD49002550E1AB48864212D8C64AC74B2846394602F0C1FB0022A54BA4
:2019C00006F018FC002800D186E0C248864200D382E039463AE10291089700249D4920465B
:2019E0002A46334602F0A6FB9C4B224604F03AFB05460F469A4A9B4B04F034FB9A4A9B4B9C
:201A000002F09DFB08F034FD994A9A4B02F097FB08F02EFD984A994B02F091FB08F028FD43
:201A2000974A984B02F08BFB08F022FD964A974B02F085FB08F01CFD06900791944A954B22
:201A400008F07FFD944A954B02F079FB08F010FD934A944B02F073FB08F00AFD924A934B14
:201A600002F06DFB08F004FD22467A4B02F067FB039004912846394602F0DAFF05900C46CB
:201A80008B48864200D283E008F019FD02460B46059D2846214604F0E5FA2A4608F066FDBA
:201AA00002460B4602F04BFB824A864B02F047FB02460B468148844902F03CFBC0E07D4AC5
:201AC0007D4B08F03EFD04460E467C4A7E4B08F038FD2246334657E0284639462A463B46BB
:201AE00004F0C0FA064608970F465D4A5D4B04F0B9FA5D4A5D4B02F022FB08F0D6FC5C4A34
:201B00005C4B02F01CFB08F0D0FC5B4A5B4B02F016FB08F0CAFC5A4A5A4B02F010FB08F007
:201B2000C4FC594A594B02F00AFB08F0BEFC04460791574A574B3046394604F093FA564ABA
:201B4000564B02F0FCFA08F0B0FC554A554B02F0F6FA08F0AAFC544A544B02F0F0FA08F088
:201B6000A4FC00223B4B02F0EAFA02460B462046079903F093FE02460B462846089C214612
:201B800004F070FA2A46234602F0D9FA05465DE000263046214632460196234604F062FAF6
:201BA00002460B462846394602F0C4FA00900F46059D28462146324608F0D8FC02460B46B6
:201BC0000098394603F06AFE06460F4608F077FC07900691284621462A4608F0C7FC0590C4
:201BE00004913046394632463B4602F0A8FA02460B463048304902F09DFA05460F4605987E
:201C00000499079A069B04F02DFA2A463B4602F091FA05460F4601982146024608F0A6FCDA
:201C200002460B46254C264E2046314602F082FA2A463B4602F07EFA2246334602F07FFA34
:201C400005460898002801DC02984140284609B0F0BDC0460000F03FFFFFDF3F0000E03F35
:201C600009F7FD0DE13D023F88B20175E0EF493F3B8F68B52882A4BF5544880E55C1C93FB3
:201C80007D6FEB0312D6D4BF555555555555C53F82922EB1C5B8B33F59018D1B6C06E6BF72
:201CA000C88A599CE52A00404B2D8A1C273A03C03333EF3F075C143326A6913C182D445498
:201CC000FB21E93F26A691BCFB21F93F9C7500883CE4377E0000503E000010C00000F87F10
:201CE000F0B587B005460F460122D0070E468643924886420DD3B448864203D8002D3FD0F4
:201D000086423DD1284639462A463B4602F017FAE2E08B488642039112D8914A914B28460C
:201D2000394602F00CFA00248B4B224606F062FAE1430291002869D0B00DF92866D2CDE09D
:201D40008048864220D8854886423FD8284631462A46334602F0F3F900277C4B3A4602F043
:201D6000EEF9044628460D4601218B07314602973A4602F0E4F902460B462046294636E0DA
:201D8000002920DC924F1FE06F48864234D800246F4B284608F0D2FB2A4605460F466D4BDA
:201DA00010463146224604F05DF96B4B224602F0C6F902460B462846394603F06FFD0546A5
:201DC0000F46022021E0814F824D87E0029200245E4B284608F0B2FB2A4605460F465E4B58
:201DE000104608F0ABFB02460B462846394603F055FD05460F4609E0002054492A463346F5
:201E000003F04CFD05460F46032002900695284639462A463B4604F025F905900491024634
:201E20000B4604F01FF904460D464F4A4F4B04F019F94F4A4F4B02F082F908F02CFB4E4A18
:201E40004E4B02F07CF908F026FB4D4A4D4B02F076F908F020FB4C4A4C4B02F070F908F046
:201E60001AFB4B4A4B4B02F06AF902460B460598049904F0F7F804900591474A474B204664
:201E8000294604F0EFF8464A464B02F058F908F002FB454A454B02F052F908F0FCFA444AC7
:201EA000444B02F04CF908F0F6FA434A434B02F046F908F0F0FA224A964213D8049A059BD9
:201EC00002F03DF902460B4608F020FB02460B462046394602F02EF905460F46284639460A
:201EE00007B0F0BD029AD400354A1319125902925A680192049A059B02F021F902460B462C
:201F00003048011906594D6808F000FB32462B4602F010F922463B4602F00CF902460B46CB
:201F20000298019902F006F905460F4603980028D4D50120C0074740D0E7C04600001044F0
:201F4000FFFFDB3FFFFFF23FFF7F03400000F0BF0000F8BF0000F83F0000F03FFFFFE53F8B
:201F60009C7500883CE4377E11DA22E33AAD903FEB0D76244B7BA93F513DD0A0660DB13FAC
:201F80006E204CC5CD45B73FFF8300922449C23F0D5555555555D53F2F6C6A2C44B4A2BFC4
:201FA0009AFDDE522DDEADBF6D9A74AFF2B0B3BF711623FEC671BCBFC4EB98999999C9BFB1
:201FC00050BD000070BD00000000F07FFB21F93FFB21F9BF182D445410B58AB0014609A85C
:201FE00001700178A44801600068612806D1FFE7A2490878424250410870FFE79E480068D0
:202000000B2872DBFFE79C4800685A280AD1FFE79B49002008709B4908709B4908709B49B3
:20202000087061E09448006841280BD1FFE79449012008709349002008709349087093495E
:20204000087050E08C48006845280BD1FFE78C49002008708B4A012111708B4908708B4968
:2020600008703FE08448006842280AD0FFE782480068432805D0FFE77F48006844280BD19C
:20208000FFE77F49002008707E4908707E4908707E490120087024E07748006846280AD0A9
:2020A000FFE775480068472805D0FFE77248006848280BD1FFE77249002008707149087012
:2020C000714A012111707149087009E06C49002008706C4908706C4908706C490870FFE7CD
:2020E000FFE7FFE7FFE7FFE7FFE7634800687B2804D1FFE7664901200870FFE75E480068B5
:202100007D2804D1FFE7624902200870FFE76048007801280AD1FFE7574800685D490B78FA
:202120005D4AD0540878401C0870FFE758480078022800D09DE05848C078502804D1FFE700
:202140005F490120087086E053484078232800D180E05048007851490870FFE74F480078F2
:20216000042838DBFFE74D48007801904A494018401E0078303807F00BFA049008460199FB
:20218000059044480078401A07F002FA02460B4600204A49FDF794FF029003914048089040
:2021A000006806F06DFE029A039B0446049806940C460599079403F055FF069A079B01F097
:2021C000BEFF05F005FE08990860FFE733490878401E0870C2E73048407830380090082888
:2021E00037D80098810001A040588746112200001B220000252200002F220000392200004E
:20220000432200004D2200004F2200005122000023480068284908601BE021480068254920
:20222000086016E01E4800682149086011E01C4800681E4908600CE0194800681A49086094
:2022400007E0174800681749086002E001E000E0FFE7FFE7FFE70E49002008700D490870F6
:202260000E4908700E4908600B48322108F0E8F8FFE70AB010BDC0469C092020D1092020E0
:20228000A00720209F0720209D0720209E0720209A0720209B072020FC0620209C072020C0
:2022A00070072020780920207C092020880920208C0920206C092020700920200000244069
:2022C000D409202070B58EB0914C0C942068C368904A00210D91084698470D99206885686D
:2022E0008D4802780C2000902D2003230B93A8470D992068066989480268022500955020CF
:202300002B46B0470D982168CB68854A0A210791984707990B9B20680669824808908269F9
:20232000009532200990B0470D982168CB687E4A14210A919847089A09980A990B9B246836
:20234000246912680095A0470C990D980968CB68764A1E21984776480068002808D5FFE71D
:202360006B480068C368744A10201E21984707E067480068C3686F4A10201E219847FFE7F5
:202380006348006884686A480068C1174840421A0C2000901A201E210423A047674800680E
:2023A000002105F03BFF002808D0FFE758480068C368614A3C201E21984707E054480068A4
:2023C000C3685C4A3C201E219847FFE750480690006884685948006806F038FFC1174840B4
:2023E000421A0C20009044201E2105910423A047059906980068C368514A60209847069817
:202400000068C3684F4A00202821984748480068002808D5FFE73E480068C368464A10208C
:202420002821984707E03A480068C368414A102028219847FFE736480068846842480068EB
:20244000C1174840421A0C2000901A2028210423A0473A480068002105F0E0FE002808D095
:20246000FFE72B480068C368334A3C202821984707E027480068C3682E4A3C20282198478A
:20248000FFE723480390006884683048006806F0DDFEC1174840421A0C200090442028212E
:2024A00002910423A047029903980068C368244A6020984703980068046925480268022379
:2024C0000093002032210491A047039804990068C368204A084698471F480078002808D039
:2024E000FFE70B480068C3681D4A60203221984707E007480068C368184A6020322198471A
:20250000FFE703480068406980470EB070BDC046A8092020FABB0000D8092020A40920200D
:202520006FC00000C008202068C0000091C00000780720208DC000008BC0000088072020C5
:20254000C2BD00008FC000007C0720208C072020BC09202089C00000D10920207AC0000075
:2025600076C0000080B58AB009A90591088006AA049202201070CA205070E3209070092028
:20258000D0706820042104F04DFD049A0598A321117000884006002808D5FFE706A9C02048
:2025A0004870C8208870C220C87005E006A9A32048708870C870FFE709A80088C005800FB7
:2025C000002808D0FFE706A9C4200871CC204871C620887105E006A9A32008714871887103
:2025E000FFE706AAA320D0711072507275480A2104F018FD09A800888007002804D0FFE76A
:2026000006A92020087003E006A9D8200870FFE76D48012106AA04F005FD09A8008880062F
:20262000002804D5FFE7012005F0B0FE03E0002005F0ACFEFFE709A80088C005800F0028B2
:2026400020D0FFE709A80088C00500280AD5FFE706A9B22008708B204870B62088709B20D4
:20266000C87009E006A9B020087080204870B42088709020C870FFE75448042106AA04F0EB
:20268000D1FCFFE709A80088C007002826D0FFE706AAF82010708B2000010121039104F0E5
:2026A000C1FC07200290FA2100F0B4F9029805F046FD039806F040FB642006F0DFFE7D205A
:2026C000800006F0F3FE4248C82106F013FB282006F059FE0A2006F06FFE08E006AAD8206A
:2026E00010708B200001012104F09CFCFFE709A800888007002804D5FFE706A9D920087053
:2027000003E006A9D8200870FFE73248012106AA04F088FC09A800884007002804D5FFE7A6
:20272000012006F0A1FA03E0002006F09DFAFFE709A80088C006002804D5FFE7012006F074
:202740006FFA03E0002006F06BFAFFE709980821084321490191488100F088FB01990020C5
:20276000887309A800884006002805D5FFE71A49887B801D8873FFE709A80088C005800F86
:20278000002805D0FFE71449887B801D8873FFE709A800881421084205D0FFE70E49887BAB
:2027A00010308873FFE709A800888007002805D0FFE70949887B001D8873FFE700200AB028
:2027C00080BDC046A70A0000B60A0000A20A000009E3CA023D07000018092020B0B5A8B07F
:2027E00026A801907F48219000907F487F4922AA27AB00F067FF21980088C005002800D4ED
:20280000EEE0229806F032FC9D21C905039105F067F8774914910860239806F027FC03995B
:2028200005F05EF8734911910860249806F01EFC039905F055F8704912910860259806F066
:2028400015FC039905F04CF8014611986B4A13921160006803218907099104F0EDFE139996
:20286000024614980592096804910168084603F098FE1299096804F0DFFE04990246059818
:20288000069204F0D9FE069903F08BFE06F0F8FAFFF774F85A4A1F925A4B209303F0E2FBF3
:2028A00005F096FA01461298574A116001680A91084603F076FE1399024614980B92096829
:2028C00007910168084603F06CFE119909680C9104F0B2FE079902460B98089204F0ACFE2D
:2028E000089903F05EFE06F0CBFA02460C980F920A460999109204F09FFE0A9902460B98ED
:202900000D9204F099FE0C9902460D980E9204F093FE0E9903F040FE7F21C90503F041FE5E
:2029200006F0AEFA02460F980B46109901F0CCFC1F9A209B03F096FB05F04AFA119B129ACE
:20294000139904461498314D2C601B681693126819920068179009681B9104F06DFE19993D
:2029600002461698159204F067FE159903F019FE0146084603F015FE06F082FA1D900846A1
:2029800016991E90084604F057FE17991890084604F052FE189903F004FE19991A90084609
:2029A00004F04AFE01461A9803F0F6FD1B991C90084604F041FE01461C9803F0EDFD06F04D
:2029C0005FFA02461D980B461E9901F07DFC1F9A209B03F047FB05F0FBF90D490860FFE7F9
:2029E00028B0B0BD980720204E07202048072020AC092020B0092020B4092020B8092020A3
:202A00006666666666A64C4084072020800720209007202080B58AB0024608A8027007AA93
:202A2000118000784007002806D0FFE707A800888049884204DBFFE70020C0430990F5E042
:202A400007A8008806F072FE7B4904F049FF049005A8009005F0F6F900980078801E0190E5
:202A60000E286BD80198810001A040588746C046AD2A00003D2B0000D12A00003D2B000015
:202A80003D2B00003D2B0000F52A00003D2B00003D2B00003D2B00003D2B00003D2B00003F
:202AA0003D2B00003D2B0000192B000004988D21C90504F0C1FD06F0C9FB03A908800498AE
:202AC000614904F0B9FD06F0C1FB02A9088039E004982321490604F0AFFD06F0B7FB03A981
:202AE00008800498574904F0A7FD06F0AFFB02A9088027E004988B21C90504F09DFD06F006
:202B0000A5FB03A9088004984D4904F095FD06F09DFB02A9088015E004984521090604F06E
:202B20008BFD06F093FB03A908800498434904F083FD06F08BFB02A9088003E00020C04304
:202B4000099073E003A8407806A908700398487002A8407888700298C87008A80078C00791
:202B600000281CD0FFE775208000022106AA04F059FA002804D0FFE70020C043099055E059
:202B800006A8821C49208000022104F04BFA002804D0FFE70020C043099047E0FFE708A849
:202BA0000078800700281CD5FFE73B20C000022106AA04F037FA002804D0FFE70020C043FF
:202BC000099033E006A8821C2520C000022104F029FA002804D0FFE70020C043099025E01B
:202BE000FFE708A80078400700281CD5FFE777208000022106AA04F015FA002804D0FFE7B2
:202C00000020C043099011E006A8821C4B208000022104F007FA002804D0FFE70020C043B3
:202C2000099003E0FFE700200990FFE709980AB080BDC04641060000000048430000C0441F
:202C4000000040450000C04500004046F0B5A5B0049308920E46074600240A947E4D2246A3
:202C60002B4605F0BDFA002813D100247B4D3846314622462B4605F0A9FA002809D10022B5
:202C800038463146134605F08DFA00283C46354607D10AAA2046294605F068FC0A98401E8B
:202CA0000A900899087B0BAE412801D06D4800E06B4809908868019030200390307000225C
:202CC000079220462946134605F076FA01210028029101D0C8074540771C20462946079ABD
:202CE000134605F05FFA00280DD124AA2046294605F03CFC249801210A1A2046294603F08D
:202D0000DFFB04460D462046294605F0F7FE06463946059705F0DEFC0690304606F038FC11
:202D200007F099FB04460D460198471C20D3059806994618002220462946134605F032FA71
:202D4000002848D1002220462946474B03F08AF904460D4605F0D2FE0999095C771C317096
:202D600006F016FC07F077FB04460D463E46E1E70BA806994618002F16D07F1E002220460F
:202D80002946394B03F06EF904460D4605F0B6FE0999095C3246761C517006F0F9FB07F0ED
:202DA0005AFB04460D46E6E73178099C204607F09DFA001B08280EDB0196741E089D079F6A
:202DC000099E2178304607F091FA801B0E2805DD2770641EF5E7089D079F04E00999081822
:202DE00040782070019E37700A98297B4129049C01D0702100E05021069E059F224605F09D
:202E00006BFDAA68501C04D1384607F0FDFA421EAA6038463146234606F018FBA868002882
:202E2000029A02D128680007C20F38463146234605F052F9287B412801D0782000E0582050
:202E400021684A1E226008702068411E21600399017025B0F0BDC0460000F07F0000F0FF2C
:202E600008C0000019C000000000304080B582B08548807A002804D1FFE70020C04301907C
:202E8000FEE06B46002018707F49486800780968C97B012206F062F9002804D0FFE70020E0
:202EA000C0430190ECE07849486800780968497901226B4606F052F9002804D0FFE700207F
:202EC000C0430190DCE07049486800780968097901226B4606F042F9002804D0FFE70020C7
:202EE000C0430190CCE068482421405C002861D0FFE76B460C201870634948680078096818
:202F00000979012206F02AF9002804D0FFE70020C0430190B4E06946C02008705A48807A26
:202F2000C007002806D0FFE700982021084369460870FFE7544948680078096809790122DA
:202F40006B4606F00BF9002804D0FFE70020C043019095E04C48407C002804D0FFE76946DA
:202F60000220087003E0694600200870FFE74649486800780968C97B01226B4606F0EEF88B
:202F8000002804D0FFE70020C043019078E06B46002018703C4948680078096849790122E7
:202FA00006F0DCF8002804D0FFE70020C043019066E062E06B460420187033494868007828
:202FC00009680979012206F0C9F8002804D0FFE70020C043019053E02B48807C002806D1ED
:202FE000FFE72948807AC007002804D1FFE769464020087003E0694660200870FFE7224974
:20300000486800780968097901226B4606F0A6F8002804D0FFE70020C043019030E01A4825
:20302000407C002804D0FFE769460120087003E0694600200870FFE71349486800780968A5
:20304000C97B01226B4606F089F8002804D0FFE70020C043019013E00B4B58680078196849
:2030600049791033012206F079F8002804D0FFE70020C043019003E0FFE700200190FFE7CB
:20308000019802B080BDC0469408202080B588B011200105724806F09BFE079071487249CE
:2030A00006F096FE069007A88078C006002818D5FFE7012001066A4807F036F8002805D08C
:2030C000FFE76A490888401E088004E067490888401C0880FFE701200105614806F00CFD24
:2030E0001EE007A8C078C007002818D0FFE7012001055B4807F018F8002805D0FFE75B49D6
:203100000888401C088004E058490888401E0880FFE701200106524806F0EEFCFFE7FFE7EC
:2031200006A8C0788007002818D5FFE7012081064C4806F0F9FF002805D0FFE74C490888F5
:20314000401C088004E04A490888401E0880FFE701204106434806F0CFFC1EE006A8C07820
:203160004007002818D5FFE7012041063D4806F0DBFF002805D0FFE73D490888401E088071
:2031800004E03B490888401C0880FFE701208106344806F0B1FCFFE7FFE706A800780006AE
:2031A00000285BD5FFE73348049000680168324805908847FFF712FB304800683049039123
:2031C000C8613048006888612F4800680862002101912E480090405E05F048FF039A01463D
:2031E000009811600221405E05F040FF039A0146009851600421405E05F038FF0199039A7E
:20320000906023480290405E05F030FF0199039B02460298DA60405E05F028FF0199039BB9
:20322000024602981A61405E05F020FF0399486100F010FD0B48802106F05EFC04980068F5
:20324000416814488847049902460598124B1A7009688968884711490860FFE708B080BD63
:2032600000200A4000000A4080000006CA092020CC092020A00920203809202084072020B7
:20328000C008202080072020900720204E0720204807202028092020D8092020A4092020E5
:2032A00080B588B005AB802018707D49486800780968897C012205F051FF002804D0FFE71B
:2032C0000020C0430790E8E0642006F003FD05AB002018707249486800780968897C01221E
:2032E00005F03CFF002804D0FFE70020C0430790D3E06B49486800780968897D062205AB24
:2033000005F00EFF002804D0FFE70020C0430790C3E005A94879C007400FCA78D207920F2B
:203320008018497801221140411804A80170007800281DD0FFE704A80078012804D1FFE7CF
:2033400057490120C87412E004A80078022804D1FFE753490020C87408E004A801785348D5
:2033600005F032F90020C043079096E0FFE732E04B49486800780968C978012205AB05F0CF
:20338000CFFE002804D0FFE70020C043079084E005A801780F20014004A80170007800280D
:2033A00007D1FFE73F4805F00FF90020C043079073E004A80078042807D1FFE73A4805F039
:2033C00003F937490120C87403E035490020C874FFE7FFE7FFE732490291FF2088720A462E
:2033E000083208724872C872314BCB810874887401200873907600200390D0764875087510
:203400000884C883888348830883C88210775077C8847D20000103F025FB002804D0FFE7FD
:203420000020C043079038E0022002F08DFE002804D0FFE70020C04307902EE02A2003F034
:2034400081F9002804D0FFE70020C043079024E0322002F01DFD002804D0FFE70020C043EF
:2034600007901AE0002003F0C1FB002804D0FFE70020C043079010E0002000F0BDFC00286F
:2034800004D0FFE70020C043079006E00020019001F0ACFE01980790FFE7079808B080BDDC
:2034A0009408202001BD00006DBF000094BE0000FFFF0000B0B590B0044614980FAD2C7003
:2034C0000EAC21700D920CA90B700BA908700D9804F0F2FC01467A4801600068806801283C
:2034E0000BDBFFE70FA800780EA90978012200922B220C2302F0C0F80AE00FA800780EA9EE
:203500000978012200922D220C2302F0B5F8FFE70F9808300EA908910978694A0A921268F9
:2035200012680CAB1B780C2409940094C0B202F0EBFE0899099B0F980C9AD2008018801D80
:20354000097801220092C0B22E2202F095F80A9800684068632800DD7FE00BA80078032825
:2035600046D1FFE70F980C99C90040180C300EA909780C220092C0B20022012302F0C4FE41
:203580004F48006840680A2811DBFFE70F980C99C900401812300EA90978494A12685268D2
:2035A0000C230093C0B2022302F0AEFE1FE00F980C99C900401812300EA9069109780C2467
:2035C0000094C0B200220123079302F09DFE0699079B0F980C9AD200801818300978384A35
:2035E000126852680094C0B202F08EFEFFE733E0334800684068002815D4FFE730480068B8
:20360000406863280FDCFFE70F980C99C90040180C300EA909780C220092C0B2002201234D
:2036200002F072FEFFE70F980C99C9004018123005900EA8007804902148006840680A2198
:2036400005F0A0F80499024605980C230093C0B2012302F059FEFFE72FE00BA8007803286F
:2036600011D1FFE70F980C99C90040180C300EA90978134A126852680C230093C0B20323B6
:2036800002F042FE18E00F980C99C90040180C3003900EA8007802900948006840680A2178
:2036A00005F070F80299024603980C230093C0B2022302F029FEFFE7FFE710B0B0BDC046BE
:2036C0007407202010B594B0179C169C1290119110920F9306A900200870169908807448FF
:2036E000807B179A07A902F0E3F9002804D0FFE70020C0431390D7E06D4840891421084244
:203700006CD0FFE70798000607A900914A78120480188A7812028018CA788018109A10608F
:20372000089800064A79120480188A7912028018CA798018109A5060099800064A7A12040D
:2037400080188A7A12028018CA7A8018109A90600A9800064A7B120480188A7B12028018DF
:20376000C97B40181099C8600698103006A9087010980221405E029010980621405E0390DC
:2037800010980A21405E049010980E21405E059002984043039949434018049949434018FC
:2037A000059949434018019001980F210906884205DBFFE701983F49884208DBFFE7FFF7E4
:2037C00055FB169900200880C04313906CE0169908880122120210430880FFE734484089D4
:2037E0004006002823D5FFE706A9087807AA1318105C00025B78C018119B188008788318FA
:2038000098780002DB78C018119B5880087882181079000252798018119A90800698801DE9
:20382000087016990888082210430880FFE720484089C005800F002823D0FFE706A9087831
:2038400007AA1318105C00025B78C018129B18800878831898780002DB78C018129B588051
:20386000087882181079000252798018129A90800698801D08701699088870221043088025
:20388000FFE70B4840898007002807D0FFE706A8017807A8401803F015FFFFE70F9806F002
:2038A00049FE00201390FFE7139814B010BDC0461809202001000011F0B5A3B003930F4680
:2038C000044604929168002903D0002904D5062100E001210498816007910AA83021089137
:2038E00001700025204639462A462B4604F064FC01210028059101D0C8074740624E2046FB
:203900003946604A334604F075FC002809D00022204639465E4B01F0C1FF04460F466D1C16
:20392000EDE75A4E0022204639460992134604F039FC002811D1002220463946334604F069
:203940003BFC002809D0002220463946504B02F089FB04460F466D1EE4E702950AA8451C78
:203960002046394605F0CAF80695294604F0B2FE07998842019004DD481C0AA90A18085C84
:203980001FE0C9430E180AA90D18681C07902046394605F0B3F805F0FBFD02460B46204692
:2039A000394600F0C7FB0022394B02F05BFB04460F4605F0A3F8079A30306870761C1546F3
:2039C000E3D3C0B23528039E049F029B099D0FD31446501E0178491CCAB201703A2A03D32C
:2039E00030210170401EF5E70AA98842224640D00198C41815700220C043844202DBB868F4
:203A0000844207DD601E397B891EC9B2324604F063FF0124069806F0F7FC401E0599A04250
:203A20001ADB0028089A01D4069A125C1346303B5D1EAB41C9431943C90705D139780907EA
:203A400002D40025059905E031684B1E33600A7001250021401EE2E73868082202402A43F2
:203A6000501E824106982146334604F035FB23B0F0BD501E002101700198C018441C0AA870
:203A80000690B8E70000C0FFFFFFDF410000F03F0000244080B58EB00D900C915A480078BA
:203AA00001280FD1FFE75B4800680B905A480078404205F0DBFA01460B9803F011FF544981
:203AC00008601BE051480078012812D1FFE7514800680121C90748400A904F4800784042DA
:203AE00005F0C4FA01460A9803F0FAFE4849086003E0474900200860FFE7FFE70D980C9935
:203B00004018404205F0B2FA44490391086044480890006805F0B4F9424A434B02F0A2FACB
:203B200004F056F9089A014603981160006805F0A7F90246089804920591006805F0A0F946
:203B40000246049806920A4605990792374A384B02F088FA069A079B00F0F1FA04F038F9A8
:203B6000014608980160016832480990006802F018FD01460998016000682549096802F090
:203B800010FD01460998016000682B4904F064FB002804D0FFE7274927480860FFE7254824
:203BA0000068264904F03AFB002804D0FFE7214922480860FFE71A4800682149096803F069
:203BC0003BFD2049019103F08BFE0290194800681D49096803F030FD019903F081FE014691
:203BE000029802F0DEFC1949086019480078012804D1FFE70F4900200860FFE7134800684F
:203C000005F024FB0EB080BDA00720209F0720206807202084092020D2092020600720208A
:203C20006407202085EB51B81E85EB3FEC51B81E85EBC13F5C07202000E02B4600E02BC64B
:203C40008C0920200000C842880920206C072020D109202010B58EB055480B900B980168A0
:203C6000C820884701460AA801700078012806D1FFE750490878424250410870FFE704F045
:203C8000F5FA05F053FD4C4903F0D6FC4B4903F0D3FC8B21C90503F023FE49490860494827
:203CA00001784A4251410170007800287ED0FFE7454C208841420DA803900180434B198874
:203CC0004A420CA902910A800022019222801A80805E895E02F09EFD3D48049001688069D8
:203CE00003F040FE019A029903460398394C06942360805E895EFFF7CDFE01460498364AEE
:203D000005921160806801F0D3FF059A0346069832490B60036814681B190C681B19304C45
:203D200023600068126880180968401A2D490991086020682C4907912C4A089205F00AFBA4
:203D40000799089A034609982360006805F002FB0999086017480078002807D1FFE720482B
:203D600000682049096803F0AFF804E00021084603F0AAF8FFE71648806905F081F80122C1
:203D8000D207914300221A4B04F034FA002808D1FFE70B480068174904F040FA002804D0A1
:203DA000FFE7044901200870FFE7FFE70EB010BD80092020D1092020333353400000304193
:203DC000BC092020D0092020CA092020CC092020C00820206009202068092020640920208E
:203DE000780720207C072020F21D00000EE2FFFF000049400000184180B584B002A90870D6
:203E00006448807C0978884203D1FFE700200390BDE002A80078002853D0FFE75D494868FC
:203E2000007809680979012201AB05F079F9002804D0FFE70020C0430390A8E001AB187885
:203E4000DF210840187053494868007809680979012205F083F9002804D0FFE70020C04342
:203E6000039094E0032005F035FF01A90220087048482221405C002806D0FFE7019880211E
:203E8000084301A90870FFE742482321405C002806D0FFE701983021084301A90870FFE744
:203EA0003C49486800780968097D012201AB05F055F9002804D0FFE70020C043039066E06E
:203EC0005FE034494868007809680979012201AB05F026F9002804D0FFE70020C043039090
:203EE00055E02C48807AC007002806D0FFE701982021084301A9087005E001A90878DF221D
:203F000010400870FFE723494868007809680979012201AB05F022F9002804D0FFE700208B
:203F2000C043039033E0032005F0D4FE19482221405C002804D0FFE701A98020087003E027
:203F400001A900200870FFE712482321405C002806D0FFE701983021084301A90870FFE7DE
:203F60000C49486800780968097D012201AB05F0F5F8002804D0FFE70020C043039006E09E
:203F8000FFE702980349887400200390FFE7039804B080BD9408202080B58EB00E2008218E
:203FA000029105F0EFFD5E480C90042105F0F8FE02990F2005F0E6FD02990C9805F0F0FE77
:203FC00000230693019300930321039118461A4604F0F2FF0399069B019300930120079087
:203FE0001A4604F0E9FF069805F0B0FD079805F0ADFD14200221049105F0C4FD0499152093
:2040000005F074FC0499162005F0BCFD0499172005F06CFC192005F0F3FE069B0798009397
:2040200002042720194605F047F9069B07980093420405920D20194605F03EF9049805F0A6
:20404000DFFE0520089005F0DBFE1E2005F0D8FE1F2005F0D5FE059A069B00932F20194667
:2040600005F02AF9059A069B00933320194605F023F9059A069B00933620194605F01CF900
:20408000059A069B00933A20194605F015F9252005F0B6FE262005F0B3FE232005F0B0FED1
:2040A000222005F0ADFE092001071E48099006F09BF809981B21490305F0DEFE09981A4967
:2040C00005F06EFE07990998C90305F069FD08990998890405F0DCFE099814490A9105F0EB
:2040E00019FD09980A9905F03FFD0C98612149020B9106F079F80B990C9805F051FE0C9891
:204100000B4905F0C5FE0C98112109050D9105F001FD0C980D9905F027FD0EB080BDC046BA
:2041200000200A4000000A40006003908000000600010100FCB40124E407634002E0FCB45B
:204140000124E40708B41D03ED08D60D354356025F007F0D06D12C00344300D0AEE001B057
:20416000FCBC7047A408254307242402FF34A74205D10020190D090501B0FCBC7047002BDA
:2041800003D50024A61BAC4125000B03DB08C20D134342024800400D07D11C00144300D046
:2041A0008CE00EBC1000F0BC704701246407234307242402FF34A04205D10020090D0905E0
:2041C00001B0FCBC7047002903D50024A21A9C412300C11B08D51C002B0025001400320073
:2041E00026000024611A3800362925D502B4393949420C00203C03D22F008F40374301E020
:204200003700A740002F01D040210E4302BC20290BD500290ED04C42203420B4A5402C0019
:2042200020BC0D41CE40361904E000292E000D4120390E4192196B411C0014433ED00024CA
:20424000002B04D5012400218A1A99410B00401E52005B41FBD50121890215000D400CD084
:20426000521800277B4101D3401C0BE00721C90115000D4001D189008A43072109028A435A
:2042800052005B41801C19DD07210902FF31884209D30EBC0020C90F0902FF31C900C91DE9
:2042A0000905F0BC7047190B00050143E40721431805120B104301B0FCBC704700210020E3
:2042C00001B0FCBC70477047F0B585B01E46054602920390504B514F04963E40501E14463C
:2042E000844134439C4207D80F40681E2C4684413C434948844208D90398029A049BFFF736
:204300001EFF0C46214605B0F0BD4548049B181810431AD00C46C90FD80F40000191411890
:204320003D4316D032431CD03B48864217D187421DD1424C3C48C0467944097949008F4459
:2043400001023B60DEE7414CDCE70398FDF7C8FCD7E702290398D5D3032918D015E0874259
:2043600018D10120C00704402E48241810E000242046C0467944097949008F44010206088A
:20438000C0E700200121CC07BCE72A4C00E02A4C2548B7E7B81B00153C2803DD214C2248E4
:2043A000019918E0002B09D500253B22D243904204DA28462C460EE0234C23E003980D46ED
:2043C0002146029A01F06AFA0122D2079143FDF787FC0C462946002994D0022905D00129C6
:2043E00012D10121C9074C408CE7104A104B2146FFF7A5FE02460B460B480E49FFF79AFE63
:204400007FE70F4C0F487DE7084A094B2146FFF796FE054A084B72E70000F07FFFFFFF7FA3
:20442000000010C0FB21F93F182D4454075C143326A6A1BCFB210940FB2109C0FB21E93F1A
:204440007CD902C0D221337F7CD90240FB21E9BF80B588B0014606A80180008805F066F986
:2044600001467F20C00503F03BFA524903F0E4F8059051480078002808D0FFE74F490020BB
:2044800008704F4908804F490880FFE74A480078002809D0FFE705F089FA012804D1FFE731
:2044A000454900200870FFE705F080FA00280DD1FFE741480078002808D1FFE73F49012004
:2044C000087040490888401C0880FFE73D480088049005993C4803F003FA04F0B7FE0146DE
:2044E0000498884207DDFFE733490120087007A9032008705AE03148007800280AD0FFE719
:2045000005F054FA012805D1FFE72D490888401C0880FFE729480078002829D0FFE7284843
:20452000008803900599294803F0DAF904F08EFE0146039888421BDDFFE7214800880290FE
:204540000599234803F0CCF904F080FE0146029888420DDAFFE705F029FA002807D1FFE7B2
:2045600015490120087007A9022008701EE019E012480078002814D0FFE7114800880190CD
:204580000599134803F0ACF904F060FE01460198884206DDFFE708490120087007A90870B3
:2045A00004E0FFE707A900200870FFE707A8007808B080BD00007A44D6092020D7092020EA
:2045C00096072020940720200000FA430000484200009643B0B588B006AB188003AC6C2062
:2045E000A0705248208002A82C2181705049018001AA762191704F4911806A4666219170CB
:204600004D4911801A8803210A40A55C05AA1570069DED06AD0F655D5570069D2D06AD0FC3
:20462000645D94701B880B40C45C04AB1C70069CE406A40F045D5C70069C2406A40F005D24
:2046400098703E4802F0EEFC002804D0FFE70020C043079066E03A48032104AA02F0E2FCEA
:20466000002804D0FFE70020C04307905AE0019805A9088001A8807888706846807804A9A9
:2046800088700098088006A80088400700280AD5FFE705980121084305AA10700498084378
:2046A00004A90870FFE706A80088800600280AD5FFE705A9487801221043487004A948783D
:2046C00010434870FFE706A80088C00500280AD5FFE705A9887801221043887004A9887838
:2046E00010438870FFE711208001032105AA02F099FC002804D0FFE70020C043079011E0F0
:204700001048032104AA02F08DFC002804D0FFE70020C043079005E006980B4908810020D8
:204720000790FFE7079808B0B0BDC0464CCD00000CC9000036560000264600002604000022
:204740002A040000310400001809202080B594B01390129111A90220087057482421405C02
:20476000002807D0FFE7002002F0FAFA69460120087003E0694600200870FFE703A803F058
:2047800095FE06A803F05EFB01A803F029FA02A804F0C6FD4848807A04A9087005A805F01B
:2047A0008BFC00200890FFE7089801280EDCFFE7139812990022FCF78FFE002801D1FFE763
:2047C00004E0FFE70898401C0890EDE70898022803D1FFE7002007903EE000200890FFE7B0
:2047E000089801280EDCFFE70EA80BA90122FCF773FE002801D1FFE704E0FFE70898401C89
:204800000890EDE70898022803D1FFE70020079022E012980BA901F0E5FD0AA908701398E8
:204820000EA900F04BFC014609A80170002107910078002805D1FFE7079801210843079069
:20484000FFE70AA80078002805D1FFE70798022108430790FFE7FFE71749FF200872487241
:20486000C872164ACA81887208740120087303A8008802F0F7F806A8007801F065FC01A80C
:20488000008801F05FFF02A8008801F001FB04A8007800F0ABFC05A8007802F0A7F9684602
:2048A0000078002804D0FFE7012002F059FAFFE7079814B080BDC04694082020FFFF0000D2
:2048C00070B592B000210D9111914A4804F0B4FF0D990246C820821A10A802700F91007823
:2048E00045490978884207D0FFE745490120087005F0A0FD11903FE011980C9005F09AFDD8
:2049000001460C98401A00023C49884233D3FFE73B48007801282ED1FFE7394900200870F2
:20492000384800780EA90870FFE70EA8007810A9097888420CDAFFE70EA801783248405C27
:20494000FDF74AFBFFE70E98401C0EA90870ECE710982C49087010A8007864280ADBFFE718
:2049600010A900200870274908702349087004F0EBF8FFE7FFE7FFE724480078012833D180
:20498000FFE72348006804F061FC08902148006804F05CFC09902048006804F057FC0A900E
:2049A0001E48006804F052FC07901D48006804F04DFC04461B48006804F048FC0799089AB7
:2049C000099B05460A9800260B9606960596049603950294019100901349144803F048FB70
:2049E0000B980A490870FFE710980349087012B070BDC04600A04240CF092020008038010F
:204A0000CE0920205D09202000052020D4092020700920206C0920208C0920208809202063
:204A20007C092020780920208CBF000000001040F0B585B00D4604465448014081420CD161
:204A40002046294622462B4601F00CFB22462B46FFF775FB04460D4693E04D4B002D75DD4A
:204A6000012004900105280D06D10020002D05D11538E50A6405F9E72E460DE000220D42F5
:204A800002D16D00521CFAE7801A401C2026B71A2646FE402E4394403E4A8218481E304093
:204AA00008430092D10703D0E10F400040186400E10F4000461800250498410501956400F3
:204AC000002911D04A19B71A304600DB3846B24200DC5518B24202DC019A521801924000E2
:204AE000E20F86184908EAE75F1C00221346002F23D0D019AE4216DD039300230028049AA2
:204B000000D41A46C11902910029049900DA1946761B844200D2761E039B0A40AD18241A4D
:204B2000DB19029A03E002D18442E5D23546E00F71000E1864007F08D9E7344313D0581C38
:204B4000019A12D001201840C31810E028461840204316D0002D83D505F0DCFC2121016090
:204B60000E4D00240DE0019A01E0521C002350105908D2075418009949080905081806494F
:204B800045182046294605B0F0BDC0460000F07FFFFFFF7F01FCFFFF0000E03F0000F87FFF
:204BA00080B584B003A90020087002AB0193187068207521012204F095FA494803F004FD36
:204BC00001980078682804D0FFE7032004F09EFEFFE7FEF765FB002871D1FFE7782000F0B4
:204BE00005FB002804D1FFE73D4803F0EDFC03E003A901200870FFE7782001F0F7FF0028BC
:204C000004D1FFE7374803F0DFFC03E003A901200870FFE7C82001F03BF9002804D1FFE78E
:204C2000314803F0D1FC03E003A901200870FFE705F042F8002804D1FFE72C4803F0C4FCF4
:204C400003E003A901200870FFE7294804F077F9FFF7C0FC002804D1FFE7264803F0B4FCCB
:204C600003E003A901200870FFE7FF207430FDF779FC002804D1FFE71F4803F0A5FC03E039
:204C800003A901200870FFE7C82002F065FB002804D1FFE7194803F097FC03E003A9012035
:204CA0000870FFE702F054FD012002F059F8002804D1FFE7124803F087FCFFE703E0032050
:204CC00004F024FEFFE703A80078002806D0FFE703F0BCFB032004F019FEFFE704B080BD22
:204CE0004CBF0000DFBE000048BE000090BD0000540920206EBE0000BABE000028BF000091
:204D000004BF0000F0B585B00E4602460B464748474C49004D0D28180746143721461431C0
:204D2000A94214D9A54220D21046424A1946424B05460C46FFF703FA00273A463B4603F049
:204D400059FA002843D0002E4AD43B4650E0214633318D4221D9601C874263D11046194606
:204D6000FFF7EDF902460B465CE03448F8403040104357D010462F4A19462F4B04460D469F
:204D8000FFF7DDF900220492134603F033FA002820D0002E2ED4284630E00021C943C14022
:204DA00011423FD002911046224A1946224B03900491FFF7C4F900220192134603F01AFA80
:204DC00000280AD0002E1ED4049B039A28E023462A4627E02B46224624E0049B039A21E073
:204DE0000120C00786432A462E4323461AD0154B3A4617E01148401CF8403018104B3B41EB
:204E00000340049A0EE0142F049B039A01D1731C06E0601B3430012181408A18019843417C
:204E2000029882431046194605B0F0BDEDFBFFFFFF0300009C7500883CE4377EFFFF0F0099
:204E40000000F0FF0000F0BFF0B587B01D4616463024059004700027104619463A463B46DF
:204E600003F0AAF90028019402D00120C00745400D9804900C9803903F4C304629463D4A39
:204E8000234603F0B7F9002809D00022304629463B4B00F003FD06460D467F1CEDE70598DD
:204EA000441C0022304629460692134603F07AF9002811D1002230462946304B03F07CF940
:204EC000002809D00022304629462D4B01F0CAF806460D467F1EE4E70398C019039030461B
:204EE000294603F00BFE214603F0F4FB02942418C019049908600398471C012F1ADB3046B5
:204F0000294603F0FBFD04F043FB02460B4630462946FFF70FF90022194B01F0A3F806462B
:204F20000D4603F0EBFD3030611C20707F1E0C46E5D100E02146481E0278352A0DD3891E24
:204F4000019C0A78521CD3B20A703A2B02D30C70491EF6E7059A914204D0069901700298DB
:204F600007B0F0BD0699017004990868401C08600598F5E70000C0FFFFFFDF410000F03F67
:204F80000000244080B588B006900699494802899207120F8958039100894007002804D5EF
:204FA000FFE7039840420390FFE706994148028952080C231A408958049100898006002832
:204FC00004D5FFE7049840420490FFE706993948028912090C231A40895805910089C00566
:204FE000002804D5FFE7059840420590FFE70398C117314A00920023019304F041FC009A2E
:20500000019B8900800F401803900498C11704F037FC009A019B8900800F4018049005987F
:20502000C11704F02DFC8900800F4018059003A8C17802AA1170408850700398000A907038
:205040000398D0703D200001042101F0EBFF002804D0FFE70020C043079028E003A8C1798E
:2050600002AA1170C08850700498000A90700498D070F5208000042101F0D4FF002804D0FF
:20508000FFE70020C043079011E003A8C17A02AA1170408950700598000A90700598D0705F
:2050A0007B20C000042101F0BDFF0790FFE7079808B080BD1809202009E3CA0280B58AB02A
:2050C00008900791002005904348406800780D21032204AB04F024F8002803D0FFE7072026
:2050E000099075E004A908781F221040087048781040487088781040887000200690FFE7E0
:205100000698022861DCFFE7089806998A00805807998958401AC1174840401A03F0A6FFD6
:205120008F21C90502F0DCFB0290069904A8405C00282DD0FFE72A480390FFE7069A04A96C
:20514000885C401E88540006002806D0FFE70398254902F071FA0390F0E70298039902F04F
:20516000BFFB204901F01DFA019001980121C90788431A49896903F06FF8002807D0FFE789
:20518000069801218140059808430590FFE717E002981249096903F041F8002808D1FFE7BA
:2051A00002980E49496903F057F8002807D0FFE7069801218140059808430590FFE7FFE75B
:2051C000FFE70698401C06909AE705980990FFE709980AB080BDC0469408202020BE000064
:2051E0000000C841000080BF54E3853F80B584B0014602A8017000784006400F002804D098
:20520000FFE701A9012008700DE002A80078002804D0FFE701A90020087003E001A9402045
:205220000870FFE7FFE73C49486800780968897C012201AB03F092FF002806D0FFE7364951
:2052400000208872C043039063E001A90878BF221040314A10730020087002A80078400602
:20526000002806D4FFE701980421084301A90870FFE702A800788006002806D4FFE701980C
:205280000221084301A90870FFE702A80078C006002806D4FFE701980121084301A90870A0
:2052A000FFE702A800780007002806D4FFE701983821084301A90870FFE71749486800782A
:2052C0000968C97C012201AB03F048FF002806D0FFE7114900208872C043039019E002A87E
:2052E0000078002809D0FFE702A80078082804D0FFE7002001F0E2FFFFE702980649887288
:20530000002000900875322004F0E4FC00980390FFE7039804B080BD9408202010B58EB0BE
:205320000CAC20800B910AA8028009A8038043482521405C002804D0FFE70020C0430D9002
:2053400079E00B98002804D1FFE70120C0430D9071E00020019008A90880FFE708A8008854
:205360000CA90988884248DAFFE70CA8008808A90988401A112803DBFFE71020009006E09A
:205380000CA8008808A90988401A0090FFE7009807A9088008A8008809880B9A121801F066
:2053A00041FE002804D0FFE70220C0430D9042E008A8008807A9098803AA01F0DDFD0028CF
:2053C00004D0FFE70320C0430D9034E00B9808A90988401807A90A8803A904F0F7FA002804
:2053E00004D0FFE70420C0430D9024E0FFE707990898401808A90880B0E70AA8407802ABC6
:2054000018700A9858700D49486800780968897E022203F0A3FE002804D0FFE70520C043E2
:205420000D9008E005492522012088540998C88400200D90FFE70D980EB010BD94082020B9
:20544000F0B5A1B0049305469068002801D5062090600290039200243D4F28462246069124
:205460003B4602F0BDFE06990028264614D10026384F284632463B4602F0A8FE0699002873
:205480000AD1002228460592134602F08BFE069B00282E461F4622D12F4D05F001F802F045
:2054A0008BFE002809D00022304639462B4B00F0D9FD06460F46641EEFE7284D04F0F0FFBE
:2054C00002F08EFE002807D004F0EAFF00F0E6F906460F46641CF1E735463B46059407A866
:2054E00002990091019008A82A46FFF7ADFC0446079D022D0DD1059D6D1C204604F084FF2D
:205500002018401E0021017028460125049E039F02E0049E039F0598397B324603F0DCF9D4
:20552000BA6820462946334603F090FF204604F06BFF854203D138680007C20F00E001229F
:2055400020462946334602F0C7FD21B0F0BDC0460000F07F0000F0FF0000F03F00002440D2
:2055600010B58CB00AAC207009A8017008A802700793002106910078002804D1FFE70020D3
:20558000C0430B9071E005A804F037FF09A801783748019004F0D3FD0198364A202111607C
:2055A000012104F08DFCFFE7314804F027FE8006002801D4FFE7F7E70AA8017808A8037837
:2055C0002B48012203F0B2F9FFE7294804F004FB002814D1FFE7264804F01AFE03A90870BC
:2055E000069808A90978884208D2FFE703980799069A88540698401C0690FFE7FFE7FFE758
:205600001B48012104F0A4FC0028DED0FFE7FFE7174804F0E1FA002814D1FFE7144804F05E
:20562000F7FD02A90870069808A90978884208D2FFE702980799069A88540698401C0690B3
:20564000FFE7E5E70B4900200860094803F0D2FC069808A90978884203D1FFE700200B909B
:2056600003E00120C0430B90FFE70B980CB010BD00000F4014120F40B0B58AB004460E9823
:2056800009AD2C7008AC217007A90A7006AA137005AA1070089801AA1070079820380870AD
:2056A00003A900200870FFE703A8007806A90978884264DAFFE706A800780C280CD1FFE762
:2056C00007A800780C2141432F48401803A90978405C04A908700AE007A8007801012948B1
:2056E000401803A90978405C04A90870FFE702A900200870FFE702A80078072839DCFFE709
:2057000004A800780006002809D5FFE709A8007808A9097805AA127801F0B6FE0AE009A89F
:20572000007808A9097805AA127853425A4101F0ABFEFFE70498400004A908700898411CD8
:2057400008A80170007801A90978401A06A90978884208D1FFE7019808A908700998401CB3
:2057600009A9087005E0FFE70298401C02A90870C1E7FFE70398401C03A9087094E70AB03D
:20578000B0BDC04696B1000086B7000080B586B0014604A801700078292804DBFFE7002095
:2057A000C043059075E004A8007800281DD1FFE70020029001F082FD029803AB18700720C3
:2057C00058703549486800780968897C022203F0C5FC002804D0FFE70020C043059058E03B
:2057E0002D4900200875059053E0012001F066FD03A92020087004A80078012807D1FFE7EA
:2058000003A900204870052000F09CFF20E004A80078052807DCFFE703A901204870052090
:2058200000F090FF13E004A80078142807DCFFE703A9022048700A2000F084FF06E003A918
:2058400003204870142000F07DFFFFE7FFE7FFE703AB58788001C01D58700F4948680078F7
:205860000968897C022203F079FC002804D0FFE70020C04305900CE0074A08209072002005
:20588000019010730121117501F0B0F901980590FFE7059806B080BD94082020FCB40C0076
:2058A0005C40E40FE40710B41D032D0B56006D415F007F0D73D001246405254307242402D9
:2058C000FF34A74261D00B031B0B42005B414800400D64D001246405234307242402FF3428
:2058E000A04252D0C01B002100273624AB4200D1B24204D37F414941921BAB4101E07F411A
:205900004941641E06D0002B01D1002A02D052005B41EBE7202C07D2162C0AD33900A74088
:205920002026361BF1400BE0203C3900A140002706E0A1402026361B3D00F5402943A740F4
:2059400001246405214202D17F004941401E00247F1C61410124A405214202D0401CA14378
:2059600001E06408A14303242402FF34001916DD2419A04209D8CC0749080005014378087D
:20598000204310BC2143FCBC704702BC0020C90F0902FF21C900C91D0905FCBC70470021D7
:2059A000002001B0FCBC704780B58CB00B9001A8009002F097F800980088C0030021039149
:2059C00002900B99394802899207120F8958089100894007002804D5FFE7089840420890E0
:2059E000FFE70B993148028952080C231A408958099100898006002804D5FFE709984042A2
:205A00000990FFE70B992948028912090C231A4089580A910089C005002804D5FFE70A9870
:205A200040420A90FFE70898C117029A039B03F027FF8900800F401808900998C117029A7C
:205A4000039B03F01DFF8900800F401809900A98C117029A039B03F013FF8900800F401867
:205A60000A9008A8C17805AA1170418851700899090A91700899D170C1791171C18851718B
:205A80000999090A91710999D171C17A1172408950720A98000A90720A98D072A52080004B
:205AA0000C2101F0BFFA0CB080BDC0461809202080B586B004AB1880039102923D4824210B
:205AC000405C002804D1FFE70020C04305906EE03848807A002804D1FFE70020C04305902C
:205AE00065E03449486800780968897A022201AB03F016FB002804D0FFE70020C0430590DA
:205B000055E00198000201A94978411868460180008804A90988884206DAFFE702990020B1
:205B20000870C043059042E068460088214949684988490888421DDDFFE71E494868007887
:205B40000968497C012201AB03F0EAFA002804D0FFE70020C043059029E001A80078C006DF
:205B6000002806D5FFE7FDF781F90120C04305901DE0FFE70F49486800780968C97A04AA50
:205B80001278039B03F0CCFA002804D0FFE70020C04305900BE06846008804A9098803F038
:205BA0004FF9401E0299087000200590FFE7059806B080BD9408202080B584B00120810317
:205BC00002913A48019004F005FB642003F06AFE0198029904F044F9AE200021039101F073
:205BE0001DFB0399D52001F019FB0399502001F015FB0399A82001F011FB03993F2001F09D
:205C00000DFB0399D32001F009FB0399084601F005FB0399402001F001FB03998D2001F0FA
:205C2000FDFA0399142001F0F9FA0399202001F0F5FA0399022001F0F1FA0399A12001F015
:205C4000EDFA0399C02001F0E9FA0399DA2001F0E5FA0399122001F0E1FA0399812001F0DF
:205C6000DDFA0399EF2001F0D9FA0399D92001F0D5FA0399F12001F0D1FA0399DB2001F098
:205C8000CDFA0399302001F0C9FA0399A42001F0C5FA0399A62001F0C1FA0399AF2001F023
:205CA000BDFA02F013FB04B080BDC04600200A4080B588B00790304800680690002005909D
:205CC0002E480078012811D1FFE72F4800680121C907484004902D48007803F0C7F9014611
:205CE000049801F0FDFD2749086017E02448007801280ED1FFE72448006803902348007832
:205D000003F0B4F90146039801F0EAFD1D49086003E01C4900200860FFE7FFE71C480078E3
:205D2000012805D0FFE71B480078012804D1FFE719480068059002E000200590FFE711488C
:205D40000068069901F078FC1449019101F0C8FD02900798059901F06FFC019901F0C0FDBF
:205D60000146029800F01DFC01460D480160006803F06CFA08B080BD7C0920209D072020DD
:205D80009E0720205407202074092020D2092020A00720209F072020780920200000C84213
:205DA00058072020B0B588B006903648406800780D21042205AB03F0B3F9002803D0FFE7EF
:205DC000072007905BE005AA1078E0231840C008D178302421400909401804A9087050781B
:205DE0001840C008D4780C252C40A4080019487090781840C008D27803231A40801888709B
:205E000003A900200870FFE703A80078022833DCFFE703A8017804A8405C002807D1FFE7C4
:205E2000069903A800788200002088501FE0069903A80078820014488850FFE703A80278A4
:205E400004A9885C401E8854000600280ED0FFE70698029003A909788900019140580B4921
:205E600001F0EAFB019A02998850E7E7FFE70398401C03A90870C7E700200790FFE7079885
:205E800008B0B0BD940820207B14AE3E1D5A843F80B584B002A908803648807A002804D13B
:205EA000FFE70020C043039061E032482421405C002804D0FFE70020C043039057E02D4866
:205EC000007D002815D0FFE702A8008800280CD0FFE702A80088282807DCFFE702A80078C9
:205EE000FFF754FC0020039041E00020FFF74EFCFFE702A80088032804DCFFE702A9042050
:205F000008800BE002A800881B49884205DBFFE77D20C00002A90880FFE7FFE702A8018859
:205F20007D20C00002F08CFF401E01AB187011494868007809684978012203F00FF90028FB
:205F400004D0FFE70020C043039010E001A80078411C7D20C00002F073FF01460548C181CC
:205F6000C089400800F0EEFB00200390FFE7039804B080BD94082020E9030000B0B5364AE5
:205F800080184A6842600A78222A56D8930001A4E3589F46316000003B6000003160000004
:205FA0003B6000003B6000003B6000003B6000003B6000003B6000003B6000003B60000009
:205FC0003B6000003B6000003B6000003B6000003B600000216000003B600000216000001D
:205FE0003B6000003B6000003B6000003B6000003B6000003B6000003B6000003B600000C9
:206000003B6000003B6000003B6000003B6000003B600000216000003B60000021600000DC
:20602000036803242407A343012464071B1903E0036803242407A34303600B69C360CB6846
:20604000C46A064D2540064C1C402B19C362097A11430160B0BDC046041800008888FDFF70
:2060600077770200FCB50C005C40E40FE40710B4DD02540D2543D6025F007F0D60D0012475
:20608000E407254307242402FF34A74250D0CB02440D2343C2024800400D51D00124E40712
:2060A000234307242402FF34A04241D0C01901B41800290003F0ACF80F0001B41800310090
:2060C00003F0A6F803000C001000310003F0A0F806001000290003F09BF8050076180022DA
:2060E00002BC01BC55415141A419554151418024A4005B195141FF18514100D564003F1990
:20610000514102D47F00494100E0401C03242402FF34001B14DD2419A04209D80305F80A3C
:206120004C0520434900090B194310BC2143FCBD0020FF21C900C91D090510BC2143FCBD23
:206140000021002001B0FCBD80B584B002A908703548807A002804D1FFE70020C0430390F8
:206160005FE002A80078801E00900E2832D80098810001A040588746B5610000D5610000E5
:20618000BD610000D5610000D5610000D5610000C5610000D5610000D5610000D561000077
:2061A000D5610000D5610000D5610000D5610000CD61000001A9002008700FE001A90820D6
:2061C00008700BE001A91020087007E001A91820087003E00020C043039022E01248407A1A
:2061E00001A90978C908884203D1FFE70020039017E00D49486800780968C979012201AB75
:2062000002F0ACFF002804D0FFE70020C043039007E001A80078C0080349487200200390C0
:20622000FFE7039804B080BD94082020F0B584B03049314A0125AC0316682B0203939E434C
:2062400016600E68264205D10E68264202D10E682642F6D06C02467E9769AF432E40BD1957
:2062600095612025455DD6690327BE433D407519D561224D2E680727374005262E60466A83
:2062800033681362736853622F60C3695B065B0CD5697F263602B543EB18D361E8C800974A
:2062A00007680197476802971B071B0B2D03ADB2ED1833071B0D007A009E35431D43019BC5
:2062C0001D43029B1D43054390690D4B03400D482840C01890611068039B184310600868AE
:2062E000204205D10868204202D108682042F6D004B0F0BD04020B4008010B400013404090
:206300008D00F0FF72FF0F00B0B58CB0044610980BAD2C700AAC2170099208A90B7007A9DC
:20632000087004A90020087006A90870FFE706A8007808A90978884252DAFFE7099802902C
:2063400008990698C0434018C1B20A20039003F0C5F80146029802F073FD039902F070FD85
:2063600005A8017004A80078002822D1FFE706A8007808A90978491E88421ADAFFE705A8CA
:206380000078002810D1FFE70B9807A90B785A080699514340180AA9097801220092C0B278
:2063A0002022FFF769F916E004A901200870FFE7FFE70B9807A90B785A0806995143401878
:2063C0000AA90978059A303201240094C0B2D2B2FFF752F9FFE70698401C06A90870A6E704
:2063E0000CB0B0BD80B58AB00990089100200090069003A8FFF7D6FC00980790FFE7079866
:20640000022856DCFFE7099807998A00805808998958401AC1174840401A02F027FE8F213A
:20642000C90501F05DFA02900798810003A84058002101F0E9FE00281ED1FFE70298079921
:206440008A0003A9895801F04BFA1C4900F0A9F8019001980121C90788431749496A01F00E
:20646000FBFE002807D0FFE7079801218140069808430690FFE717E002980F49C96901F04B
:20648000CDFE002808D1FFE702980B49096A01F0E3FE002807D0FFE7079801218140069812
:2064A00008430690FFE7FFE7FFE70798401C0790A5E706980AB080BD20BE0000000080BF79
:2064C000F8B515462A4E0A0D771C3A40294B9A4213D00C46002A18D10122D2079443044366
:2064E00044D00022244BFFF7BDFD0C4623498D4208DC234A234B214636E002460B46FDF7F1
:206500001EFEF8BD220D3A40363A5119B1420ADD04F000F8222101600120C00704401D482C
:2065200021180020F8BD012904DB174A144009052143F8BD3522D24391420CDC03F0EAFF65
:206540002221016012488542E6DA0120C007044000202146F8BD0C4A144009051B22520502
:20656000891821430022094BFFF77CFDF8BDC046FE070000FF07000000005043AF3CFFFFEF
:2065800059F3F8C21F6EA501FFFF0F800000903C51C300000000F07FFCB40127FF0779404F
:2065A00002E0FCB40127FF070C024D002D0E03D1002C52D1FCBC70473C43FF2D50D0A4087C
:2065C000002900D56442020243001B0E04D1002A43D10800FCBC70473A43FF2B41D09208CB
:2065E000002800D552425E1B04D5170022003C0076422B00192E06D527003741D2191C2771
:20660000F71B7F42BC40002A27D002D55242012700E00027013B5200FCD515008026354061
:206620000FD01500202635402C43803208D21500402635402C4304D101263602B24300E048
:206640005B1C5200023308DDFF2B0BD2500ADB051843FF073843FCBC70470020FCBC70473C
:206660000800C70FFF07FF20C0053843FCBC704780B584B002A9087031482421405C00285A
:2066800021D0FFE702A80078002804D0FFE701A90220087003E001A900200870FFE728495F
:2066A000486800780968C97B012201AB02F056FD002804D0FFE70020C04303903DE001989B
:2066C0001F49487436E01E48807A002804D1FFE70020C043039030E002A80078002808D055
:2066E000FFE71748407C002803D0FFE70020039023E002A80078002804D0FFE701A9012033
:20670000087003E001A900200870FFE70C49486800780968C97B012201AB02F01FFD0028BF
:2067200004D0FFE70020C043039006E0019804494874FFE700200390FFE7039804B080BD56
:206740009408202080B584B002A908803048807A002804D1FFE70020C043039054E002A8D8
:206760000088BC2804DBFFE701A9012008702BE002A80088622804DBFFE701A902200870D5
:2067800021E002A800882A2804DBFFE701A90320087017E002A80088142804DBFFE701A996
:2067A000042008700DE002A800880A2804DBFFE701A90520087003E001A906200870FFE7CF
:2067C000FFE7FFE7FFE7FFE71148C07A01A90978884203D1FFE70020039015E00C49486832
:2067E000007809688978012201AB02F0B7FC002804D0FFE70020C043039005E001980449D8
:20680000C87200200390FFE7039804B080BDC0469408202080B58CB00B900A910B9802F0FB
:20682000B7FE00220692264B0193FFF71BFC069A01239B070293FFF731F8069A214B03931B
:20684000FFF72CF8069A204B0493FFF727F801F0BFFA099009981D49059100F0EDFE02F0BA
:206860000FFB069A1A4B0793FFF7FCFB01F0B0FA184908600A9802F08BFE019B069AFFF7CF
:20688000F1FB029B069AFFF709F8039B069AFFF705F8049B069AFFF701F801F099FA059957
:2068A0000890089800F0C8FE02F0EAFA069A079BFFF7D8FB01F08CFA074908600CB080BDE1
:2068C0000000594000003E4000002A40DB0F494000C05040880720208C072020F0B5294ABA
:2068E0008218294BC0180B79202B0DD0274C002B1CD10D686D1E4560C56E25408835C56656
:206900000646703688251CE00C68641E4460C46E1E4D2C401E4EA419C466046F2C40A4194A
:2069200004671C4C01256D0706460AE00525ED010E6876084660C66E26407619C666064661
